:100000001EC02DC02CC02BC02AC029C028C027C0AC
:10001000DAC025C024C023C022C021C020C01FC018
:100020001EC01DC01CC01BC01AC019C018C017C0FC
:1000300016C015C014C013C012C011C010C01124C6
:100040001FBECFEFCDBFDFE3DEBF2EE3A0E0BEE3F8
:1000500001C01D92A230B207E1F73DD00AC1D0CF56
:1000600081E08093003E809326048091013E9FE0D2
:10007000909346048F7080934504E091013EE830F0
:1000800008F0E0E0F0E080EE809305048CE38093DC
:100090002504EA58FD4780818295880F807E8093F1
:1000A0000604808186958C738093260480E180937A
:1000B00006048091000A8E7F8093000A1092200A25
:1000C0001092210A81E080930B0A8091000A8160DE
:1000D0008093000A0895A89588ED27E030E084BF5A
:1000E000209361009CE09093000A1092010A109204
:1000F000020A1092030A81E08093040A1092090A0E
:100100002DE033E02093260A3093270A1092200A2C
:100110001092210A80930B0A80930A0A2FE0209301
:10012000410420934604809321048093250430EFFA
:10013000309301042CE32093210430930504209391
:1001400025049093020498E0909312049093130472
:1001500023E020930204909310049093110422E072
:1001600020932204909331041092013E8093003E2C
:10017000789476DFC7E08091003E81110BC08091BA
:10018000080483FD09C08091013E873080F0109201
:10019000013E66DFA895EFCF8091080482FDFACF7B
:1001A0008091013E811109C0C093013EF2CF809140
:1001B000013E8F5F8093013EECCF8091013E8150E4
:1001C0008093013EE6CF1F921FB61F9211248F939A
:1001D000EF93FF938091000A8E7F8093000A81E065
:1001E00080930B0A80932504E091013EE83008F0EB
:1001F000E0E0F0E080EE809305048CE3809325043A
:10020000EA58FD4780818295880F807E809306049E
:10021000808186958C738093260480E18093050409
:100220008091080483FF04C08091080482FD18C0F7
:100230008091000A8E7F8093000A1092200A10920B
:10024000210A81E080930B0A8091000A81608093EB
:10025000000AFF91EF918F911F901FBE1F9018957C
:100260001092003EFF91EF918F911F901FBE1F9043
:060270001895F894FFCF81
:08027600063B2F666D7D077F3A
:02000004008278
:0900000006F5010000F204000005
:02000004008377
:01000000C53A
:00000001FF
