:0400000002002132A7
:01000B0032C2
:0100130032BA
:03001B0002009050
:09007A0075080275090002001E60
:03001E000200FDE0
:10008300C28E758D00758B00C28FD28E22C020C0A8
:10009300E0C0F0C082C083C007C006C005C004C072
:1000A30003C002C001C000C0D075D000C28EC28F91
:1000B300E5095480F590D2B430B50830B70575081A
:1000C300008006750801120083D0D0D000D001D083
:1000D30002D003D004D005D006D007D083D082D07D
:1000E300F0D0E0D02032750802C2B485099053B035
:1000F300F0E509540F42B0020083750A79750B24A9
:10010300750C30750D19750E12750F027510787513
:100113001100758800758910758A00758C00758BC0
:1001230000758D0075980075870075B808C28F75C6
:10013300A888D2B6750900750802D2B5D2B71200E5
:10014300E9E50870FC20B51574F925095005750912
:10015300008005E50904F5091200E980E420B7E110
:10016300E50970057509078005E50914F50912000D
:03017300E980CE52
:06005000E478FFF6D8FD84
:10002E007900E94400601B7A0090017A780175A08E
:10003E0000E493F2A308B8000205A0D9F4DAF27531
:02004E00A0FF11
:100056007800E84400600A790175A000E4F309D845
:10006600FC7800E84400600C7900900001E4F0A3FD
:04007600D8FCD9FADF
:0D002100758120120176E582600302001E49
:04017600758200226C
:00000001FF
