:0400000002002132A7
:01000B0032C2
:0100130032BA
:03001B0002009050
:09007A0075080275090002001E60
:03001E00020108D4
:10008300C28E758D09758BE7C28FD28E22C020C0B8
:10009300E0C0F0C082C083C007C006C005C004C072
:1000A30003C002C001C000C0D075D000C28EC28F91
:1000B300E50990016D93FF74804FF590C2B430B59C
:1000C3000830B7057508008006750801120083D053
:1000D300D0D000D001D002D003D004D005D006D0B8
:1000E30007D083D082D0F0D0E0D02032750802D27E
:1000F300B4E50990016D93F59053B0F0E509540F01
:1001030042B0020083758800758910758A00758C6A
:1001130000758B00758D0075980075870075B8089C
:10012300C28F75A888D2B6750900750802D2B5D2F8
:10013300B71200EFE50870FC20B51574F9250950D6
:10014300057509008005E50904F5091200EF80E44F
:1001530020B7E1E50970057509078005E50914F580
:06016300091200EF80CE3E
:08016D00792430191202780018
:06005000E478FFF6D8FD84
:10002E007900E94400601B7A00900175780175A093
:10003E0000E493F2A308B8000205A0D9F4DAF27531
:02004E00A0FF11
:100056007800E84400600A790175A000E4F309D845
:10006600FC7800E84400600C7900900001E4F0A3FD
:04007600D8FCD9FADF
:0D002100758120120169E582600302001E56
:040169007582002279
:00000001FF
