:0400000002002132A7
:01000B0032C2
:0100130032BA
:03001B000200A838
:10007A00750879750924750A30750B19750C12758E
:10008A000D02750E78750F007510027511000200C9
:01009A001E47
:03001E0002011FBD
:10009B00C28E758D00758B00C28FD28E22C020C090
:1000AB00E0C0F0C082C083C007C006C005C004C05A
:1000BB0003C002C001C000C0D075D000C28EC28F79
:1000CB00E5112408F9870774804FF590D2B430B549
:1000DB000830B705751000800675100112009BD013
:1000EB00D0D000D001D002D003D004D005D006D0A0
:1000FB0007D083D082D0F0D0E0D02032751002C26E
:10010B00B4E5112408F9879053B0F0E511540F4270
:10011B00B002009B758800758910758A00758C007C
:10012B00758B00758D0075980075870075B808C2C2
:10013B008F75A888D2B6751100751002D2B5D2B7DB
:10014B00120107E51070FC20B51574F92511500547
:10015B007511008005E51104F51112010780E420EB
:10016B00B7E1E51170057511078005E51114F5115F
:05017B0012010780CE17
:06005000E478FFF6D8FD84
:10002E007900E94400601B7A00900184780175A084
:10003E0000E493F2A308B8000205A0D9F4DAF27531
:02004E00A0FF11
:100056007800E84400600A790175A000E4F309D845
:10006600FC7800E84400600C7900900001E4F0A3FD
:04007600D8FCD9FADF
:0D002100758120120180E582600302001E3F
:040180007582002262
:00000001FF
